{
  "contractName": "SimpleStorage",
  "abi": [
    {
      "inputs": [],
      "stateMutability": "nonpayable",
      "type": "constructor"
    },
    {
      "inputs": [
        {
          "internalType": "uint256",
          "name": "",
          "type": "uint256"
        }
      ],
      "name": "owners",
      "outputs": [
        {
          "internalType": "address",
          "name": "",
          "type": "address"
        }
      ],
      "stateMutability": "view",
      "type": "function",
      "constant": true
    },
    {
      "inputs": [
        {
          "internalType": "address",
          "name": "",
          "type": "address"
        }
      ],
      "name": "wallets",
      "outputs": [
        {
          "internalType": "address",
          "name": "inst",
          "type": "address"
        },
        {
          "internalType": "address",
          "name": "stud",
          "type": "address"
        },
        {
          "components": [
            {
              "internalType": "string",
              "name": "aadhar",
              "type": "string"
            }
          ],
          "internalType": "struct SimpleStorage.Documents",
          "name": "documents",
          "type": "tuple"
        }
      ],
      "stateMutability": "view",
      "type": "function",
      "constant": true
    },
    {
      "inputs": [
        {
          "internalType": "address",
          "name": "instituteaddress",
          "type": "address"
        }
      ],
      "name": "createNewMultiSigbyUser",
      "outputs": [],
      "stateMutability": "nonpayable",
      "type": "function"
    },
    {
      "inputs": [
        {
          "internalType": "string",
          "name": "a",
          "type": "string"
        }
      ],
      "name": "uploadAadhar",
      "outputs": [],
      "stateMutability": "nonpayable",
      "type": "function"
    },
    {
      "inputs": [],
      "name": "getOwners",
      "outputs": [
        {
          "internalType": "address[]",
          "name": "",
          "type": "address[]"
        }
      ],
      "stateMutability": "view",
      "type": "function",
      "constant": true
    },
    {
      "inputs": [
        {
          "internalType": "address",
          "name": "",
          "type": "address"
        }
      ],
      "name": "getOwners",
      "outputs": [
        {
          "internalType": "address[]",
          "name": "",
          "type": "address[]"
        }
      ],
      "stateMutability": "view",
      "type": "function",
      "constant": true
    },
    {
      "inputs": [
        {
          "internalType": "address",
          "name": "wallet",
          "type": "address"
        }
      ],
      "name": "doesWalletExists",
      "outputs": [
        {
          "internalType": "bool",
          "name": "",
          "type": "bool"
        }
      ],
      "stateMutability": "view",
      "type": "function",
      "constant": true
    },
    {
      "inputs": [
        {
          "internalType": "address",
          "name": "user",
          "type": "address"
        }
      ],
      "name": "getProfile",
      "outputs": [
        {
          "internalType": "string",
          "name": "",
          "type": "string"
        },
        {
          "internalType": "string",
          "name": "",
          "type": "string"
        },
        {
          "internalType": "string",
          "name": "",
          "type": "string"
        }
      ],
      "stateMutability": "pure",
      "type": "function",
      "constant": true
    },
    {
      "inputs": [],
      "name": "getAadhar",
      "outputs": [
        {
          "internalType": "string",
          "name": "",
          "type": "string"
        }
      ],
      "stateMutability": "view",
      "type": "function",
      "constant": true
    },
    {
      "inputs": [
        {
          "internalType": "address",
          "name": "user",
          "type": "address"
        }
      ],
      "name": "getAadhar",
      "outputs": [
        {
          "internalType": "string",
          "name": "",
          "type": "string"
        }
      ],
      "stateMutability": "view",
      "type": "function",
      "constant": true
    },
    {
      "inputs": [
        {
          "internalType": "address",
          "name": "user",
          "type": "address"
        }
      ],
      "name": "getMultiSig",
      "outputs": [
        {
          "internalType": "address",
          "name": "",
          "type": "address"
        },
        {
          "internalType": "address",
          "name": "",
          "type": "address"
        },
        {
          "internalType": "string",
          "name": "",
          "type": "string"
        }
      ],
      "stateMutability": "view",
      "type": "function",
      "constant": true
    },
    {
      "inputs": [
        {
          "internalType": "uint256",
          "name": "x",
          "type": "uint256"
        }
      ],
      "name": "set",
      "outputs": [],
      "stateMutability": "nonpayable",
      "type": "function"
    },
    {
      "inputs": [],
      "name": "get",
      "outputs": [
        {
          "internalType": "uint256",
          "name": "",
          "type": "uint256"
        }
      ],
      "stateMutability": "view",
      "type": "function",
      "constant": true
    }
  ],
  "bytecode": "0x608060405234801561001057600080fd5b506001805480820182556000919091527fb10e2d527612073b26eecdfd717e6a320cf44b4afac2b0732d9fcbe2b7fa0cf60180546001600160a01b03191633179055610be2806100616000396000f3fe608060405234801561001057600080fd5b50600436106100cf5760003560e01c806360fe47b11161008c57806389b08f111161006657806389b08f1114610258578063a0e67e2b1461027a578063fc75d4f51461028f578063fd8b84b1146102a257600080fd5b806360fe47b11461022157806367fa04cb146102345780636d4ce63c1461024757600080fd5b8063025e7c27146100d457806302e8dbc0146101045780630f53a470146101195780631e9f3d5e146101a957806333b62877146101cb578063571479c11461020c575b600080fd5b6100e76100e23660046107c5565b6102b5565b6040516001600160a01b0390911681526020015b60405180910390f35b6101176101123660046107f4565b6102df565b005b61019a6101273660046108a5565b604080518082018252600c81526b44656661756c74204e616d6560a01b60208083019190915282518084018452601181527064656661756c7440656d61696c2e636f6d60781b818301528351808501909452600b84526a44656661756c742042696f60a81b918401919091529093909250565b6040516100fb9392919061091b565b6101bc6101b73660046108a5565b610301565b6040516100fb9392919061095e565b6101fc6101d93660046108a5565b6001600160a01b0390811660009081526020819052604090206001015416151590565b60405190151581526020016100fb565b610214610401565b6040516100fb9190610993565b61011761022f3660046107c5565b600255565b6102146102423660046108a5565b6104a5565b6002546040519081526020016100fb565b61026b6102663660046108a5565b610554565b6040516100fb939291906109a6565b61028261061e565b6040516100fb91906109da565b61011761029d3660046108a5565b61067f565b6102826102b03660046108a5565b610762565b600181815481106102c557600080fd5b6000918252602090912001546001600160a01b0316905081565b336000908152602081905260409020600281016102fc8382610aaf565b505050565b6001600160a01b0380821660009081526020818152604080832081516060818101845282548716825260018301549096168185015282519384018352600282018054959687969095879593949385019290918290829061036090610a27565b80601f016020809104026020016040519081016040528092919081815260200182805461038c90610a27565b80156103d95780601f106103ae576101008083540402835291602001916103d9565b820191906000526020600020905b8154815290600101906020018083116103bc57829003601f168201915b5050509190925250505090525080516020820151604090920151519097919650945092505050565b33600090815260208190526040902060020180546060919061042290610a27565b80601f016020809104026020016040519081016040528092919081815260200182805461044e90610a27565b801561049b5780601f106104705761010080835404028352916020019161049b565b820191906000526020600020905b81548152906001019060200180831161047e57829003601f168201915b5050505050905090565b6001600160a01b03811660009081526020819052604090206002018054606091906104cf90610a27565b80601f01602080910402602001604051908101604052809291908181526020018280546104fb90610a27565b80156105485780601f1061051d57610100808354040283529160200191610548565b820191906000526020600020905b81548152906001019060200180831161052b57829003601f168201915b50505050509050919050565b600060208181529181526040908190208054600182015483519485019093526002820180546001600160a01b039283169592909416938290829061059790610a27565b80601f01602080910402602001604051908101604052809291908181526020018280546105c390610a27565b80156106105780601f106105e557610100808354040283529160200191610610565b820191906000526020600020905b8154815290600101906020018083116105f357829003601f168201915b505050505081525050905083565b6060600180548060200260200160405190810160405280929190818152602001828054801561049b57602002820191906000526020600020905b81546001600160a01b03168152600190910190602001808311610658575050505050905090565b33600081815260208190526040812080546001600160a01b0385166001600160a01b0319918216178255600182018054909116909317909255805b60015481101561071657336001600160a01b0316600182815481106106e1576106e1610b6f565b6000918252602090912001546001600160a01b0316036107045760019150610716565b8061070e81610b85565b9150506106ba565b50806102fc576001805480820182556000919091527fb10e2d527612073b26eecdfd717e6a320cf44b4afac2b0732d9fcbe2b7fa0cf60180546001600160a01b03191633179055505050565b6060600180548060200260200160405190810160405280929190818152602001828054801561054857602002820191906000526020600020905b81546001600160a01b0316815260019091019060200180831161079c5750505050509050919050565b6000602082840312156107d757600080fd5b5035919050565b634e487b7160e01b600052604160045260246000fd5b60006020828403121561080657600080fd5b813567ffffffffffffffff8082111561081e57600080fd5b818401915084601f83011261083257600080fd5b813581811115610844576108446107de565b604051601f8201601f19908116603f0116810190838211818310171561086c5761086c6107de565b8160405282815287602084870101111561088557600080fd5b826020860160208301376000928101602001929092525095945050505050565b6000602082840312156108b757600080fd5b81356001600160a01b03811681146108ce57600080fd5b9392505050565b6000815180845260005b818110156108fb576020818501810151868301820152016108df565b506000602082860101526020601f19601f83011685010191505092915050565b60608152600061092e60608301866108d5565b828103602084015261094081866108d5565b9050828103604084015261095481856108d5565b9695505050505050565b6001600160a01b0384811682528316602082015260606040820181905260009061098a908301846108d5565b95945050505050565b6020815260006108ce60208301846108d5565b600060018060a01b0380861683528085166020840152506060604083015282516020606084015261095460808401826108d5565b6020808252825182820181905260009190848201906040850190845b81811015610a1b5783516001600160a01b0316835292840192918401916001016109f6565b50909695505050505050565b600181811c90821680610a3b57607f821691505b602082108103610a5b57634e487b7160e01b600052602260045260246000fd5b50919050565b601f8211156102fc57600081815260208120601f850160051c81016020861015610a885750805b601f850160051c820191505b81811015610aa757828155600101610a94565b505050505050565b815167ffffffffffffffff811115610ac957610ac96107de565b610add81610ad78454610a27565b84610a61565b602080601f831160018114610b125760008415610afa5750858301515b600019600386901b1c1916600185901b178555610aa7565b600085815260208120601f198616915b82811015610b4157888601518255948401946001909101908401610b22565b5085821015610b5f5787850151600019600388901b60f8161c191681555b5050505050600190811b01905550565b634e487b7160e01b600052603260045260246000fd5b600060018201610ba557634e487b7160e01b600052601160045260246000fd5b506001019056fea2646970667358221220a6c49596c9ac91fb6a86055780869a300db0cf495a8907b258262381be492cd664736f6c63430008120033",
  "immutableReferences": {},
  "source": "// SPDX-License-Identifier: UNLICENSED\r\npragma solidity ^0.8.0;\r\n\r\ncontract SimpleStorage {\r\n\r\n    struct Documents {\r\n        string aadhar;\r\n    }\r\n\r\n    struct MultiSig {\r\n        address inst;\r\n        address stud;\r\n        Documents documents;\r\n    }\r\n\r\n    mapping(address => MultiSig) public wallets;\r\n    address[] public owners;\r\n\r\n    constructor() {\r\n        owners.push(msg.sender);\r\n    }\r\n\r\n    // Create a new MultiSig wallet by user\r\n    function createNewMultiSigbyUser(address instituteaddress) public {\r\n        MultiSig storage wa = wallets[msg.sender];\r\n        wa.inst = instituteaddress;\r\n        wa.stud = msg.sender;\r\n        \r\n        // Add to owners array if not already there\r\n        bool exists = false;\r\n        for (uint i = 0; i < owners.length; i++) {\r\n            if (owners[i] == msg.sender) {\r\n                exists = true;\r\n                break;\r\n            }\r\n        }\r\n        if (!exists) {\r\n            owners.push(msg.sender);\r\n        }\r\n    }\r\n\r\n    // Upload an Aadhar (string input)\r\n    function uploadAadhar(string memory a) public {\r\n        MultiSig storage wa = wallets[msg.sender];\r\n        wa.documents.aadhar = a;\r\n    }\r\n\r\n    // Get owners array\r\n    function getOwners() public view returns (address[] memory) {\r\n        return owners;\r\n    }\r\n    \r\n    // Overloaded getOwners for compatibility\r\n    function getOwners(address) public view returns (address[] memory) {\r\n        return owners;\r\n    }\r\n\r\n    // Check if wallet exists for given address\r\n    function doesWalletExists(address wallet) public view returns (bool) {\r\n        return wallets[wallet].stud != address(0);\r\n    }\r\n\r\n    // Get user profile - returns default values for compatibility\r\n    function getProfile(address user) public pure returns (string memory, string memory, string memory) {\r\n        // Suppress unused parameter warning\r\n        user;\r\n        return (\"Default Name\", \"default@email.com\", \"Default Bio\");\r\n    }\r\n\r\n    // Get Aadhar for specific user\r\n    function getAadhar(address user) public view returns (string memory) {\r\n        return wallets[user].documents.aadhar;\r\n    }\r\n\r\n    // Get Aadhar for calling user\r\n    function getAadhar() public view returns (string memory) {\r\n        return wallets[msg.sender].documents.aadhar;\r\n    }\r\n\r\n    // Get MultiSig data for user\r\n    function getMultiSig(address user) public view returns (address, address, string memory) {\r\n        MultiSig memory wallet = wallets[user];\r\n        return (wallet.inst, wallet.stud, wallet.documents.aadhar);\r\n    }\r\n\r\n    // Basic storage functions for compatibility\r\n    uint256 storedData;\r\n\r\n    function set(uint256 x) public {\r\n        storedData = x;\r\n    }\r\n\r\n    function get() public view returns (uint256) {\r\n        return storedData;\r\n    }\r\n}",
  "sourcePath": "C:\\Users\\intou\\Documents\\TrustEdu\\truffle\\contracts\\SimpleStorage.sol",
  "compiler": {
    "name": "solc",
    "version": "0.8.18+commit.87f61d96.Emscripten.clang"
  },
  "schemaVersion": "3.4.16",
  "updatedAt": "2025-09-10T13:59:15.201Z",
  "networkType": "ethereum",
  "devdoc": {
    "kind": "dev",
    "methods": {},
    "version": 1
  },
  "userdoc": {
    "kind": "user",
    "methods": {},
    "version": 1
  }
}